:030000000214994E
:0C149900787FE4F6D8FD7581210214E094
:1017F700AD071FED600BE4FEEEC3946450F20E805C
:01180700F7E9
:0118080022BD
:03181B0012181E82
:07181E00E4FF0FEFB401FB32
:0118250022A0
:1017CF00D2A212181EC2A27F191217F7D2A2121894
:0417DF001B02181EB3
:1016E800E4FD30A2FD12181B12181EE4FE30A20100
:1016F8000E20A2FD9000E4E025E0F04EF00DEDB4E0
:0717080008E09000E4E0FF9F
:01170F0022B7
:0B0FF800900083EBF0A3EAF0A3E9F007
:101003001217CFD2A230A2030210D230A2FD20A227
:10101300FD1216E890008AEFF01216E890008BEFAD
:10102300F01216E8900089EFF01216E8AC071216DA
:10103300E8AE07C2A2E4FD12181E0DEDB407F8D204
:10104300A290008BE0FF90008AE02FFF900089E0E0
:101053002F2C6E707AAF04120241E4FBFA79807888
:1010630043120121C004C005C006C007900089E0F7
:101073007C00FDE412023CD003D002D001D0001268
:10108300002D900083E0FBA3E0FAA3E0F91206032E
:1010930090008BE0FCE4120241E4FBFA7980784390
:1010A300120121C004C005C006C00790008AE07C7D
:1010B30000FDE412023CD003D002D001D0001200A4
:0F10C3002D900086E0FBA3E0FAA3E0F9120603EC
:0110D20022FB
:100B20002273756E6C69676874223A31002273759E
:100B30006E6C69676874223A30002266616E223AF0
:100B400031002266616E223A30002270756D622299
:100B50003A31002270756D62223A300041542B43C5
:100B6000574D4F44453D310D0A004F4B0041542B2A
:100B700043574A41503D222573222C222573220DD2
:100B80000A0054726F75626C656D616B65727300FB
:100B9000333133333430363132390041542B4D51F7
:100BA0005454555345524346473D302C312C224E28
:100BB000554C4C222C222573222C222573222C30BA
:100BC0002C302C22220D0A006465766963655F3142
:100BD000266B3074326D504243344D4800304333FD
:100BE0003938443539343242423430444130443566
:100BF000394334364630454245413831464637342C
:100C00003538394330314339304541363034424547
:100C1000303532353945444333423438320041545B
:100C20002B4D515454434C49454E5449443D302C6E
:100C3000222573220D0A0073656E736F727C7365D3
:100C4000637572656D6F64653D335C2C7369676EA7
:100C50006D6574686F643D686D616373686132359A
:100C6000365C2C74696D657374616D703D32323120
:100C7000397C0041542B4D515454434F4E4E3D301E
:100C80002C222573222C25732C310D0A006B307415
:100C9000326D504243344D482E696F742D61732D6F
:100CA0006D7174742E636E2D7368616E676861690F
:100CB0002E616C6979756E63732E636F6D003138C8
:030CC000383300C6
:1015FE004300DFFF0B204300D6FF0B2D4300DCFF23
:10160E000B3A4300D3FF0B424300D9FF0B4A430072
:04161E00D0FF0B539B
:100EF000900089EBF0A3EAF0A3E9F0900089E0F913
:100F0000A3E0FAA3E090008FC9F0A3EAF0A3E9F010
:100F10009000DFE0FBA3E0FAA3E0F9121280E94AB7
:100F20004B6002D291900089E0F9A3E0FAA3E0902F
:100F3000008FC9F0A3EAF0A3E9F09000D6E0FBA38C
:100F4000E0FAA3E0F9121280E94A4B6002C29190E4
:100F50000089E0F9A3E0FAA3E090008FC9F0A3EACA
:100F6000F0A3E9F09000DCE0FBA3E0FAA3E0F912C3
:100F70001280E94A4B6002D290900089E0F9A3E028
:100F8000FAA3E090008FC9F0A3EAF0A3E9F0900083
:100F9000D3E0FBA3E0FAA3E0F9121280E94A4B6028
:100FA00002C290900089E0F9A3E0FAA3E090008FDC
:100FB000C9F0A3EAF0A3E9F09000D9E0FBA3E0FABE
:100FC000A3E0F9121280E94A4B6002D292900089A4
:100FD000E0F9A3E0FAA3E090008FC9F0A3EAF0A340
:100FE000E9F09000D0E0FBA3E0FAA3E0F912128050
:080FF000E94A4B6002C29222A3
:1011AC0080061210D3EF700B7BFF7A0B795C120761
:1011BC000880EF7F2C1217E380061210D3EF7025F6
:1011CC0090008674FFF0A3740BF0A37482F0A374E8
:1011DC00FFF0A3740BF0A37490F07BFF7A0B796D86
:1011EC0012070880D57F2C1217E380061210D3EF5C
:1011FC00702590008674FFF0A3740BF0A374C8F0F4
:10120C00A374FFF0A3740BF0A374DDF07BFF7A0BD7
:10121C00799B12070880D57F2C1217E380061210D9
:10122C00D3EF701990008674FFF0A3740CF0A374C4
:10123C0037F07BFF7A0C791E12070880E17F2C12A5
:10124C0017E380061210D3EF702590008674FFF020
:10125C00A3740CF0A3748DF0A374FFF0A3740CF0C2
:10126C00A374BEF07BFF7A0C797312070880D57FCC
:04127C002C0217E346
:0610D3007BFF7A0B796A35
:0B10D900900083EBF0A3EAF0A3E9F025
:1010E400E4A3F0A3F07FC81217E3900083E0FBA30E
:1010F400E0FAA3E04A4B7002FF227E007F019000D9
:1011040086EEF0A3EFF04E70030211A5900083E089
:10111400FBA3E0FAA3E0F9120EF0900086E0FEA330
:10112400E0AA06F97B01C002C001900083E0F9A3A4
:10113400E0FAA3E090008FC9F0A3EAF0A3E9F0D0AD
:1011440001D002121280E94A4B602FE4900088F02B
:10115400900082E0FF900088E0FEC39F5014740169
:101164002EF582E43400F583E4F0900088E004F086
:1011740080DEE4900082F07F0122E4900088F09009
:101184000082E0FF900088E0FEC39F501474012E9B
:10119400F582E43400F583E4F0900088E004F08004
:0711A400DEE4900082F0FF81
:0111AB002221
:0C162200410081004100000041008200F6
:081826008F993099FDC299224F
:10178A0075985075C83475CAFD75CCFD75CBFF7553
:07179A00CDFFD2ACD2AF225B
:1016BF00900081E599F0E0FFA3E0FE2401F582E4BC
:1016CF003400F583EFF0EEC3947F4006E490008280
:0916DF00F022900082E004F022E8
:0300230002173889
:10173800C0E0C083C082C0D075D008309805C29878
:0C1748001216BFD0D0D082D083D0E03287
:10177000E4FEC2A1EF30E704D2A08002C2A0D2A151
:09178000EF25E0FF0EEEB408E9CC
:01178900223D
:10000300E4FBED25E0FDEC33FCD2A1C2A130A50455
:0D001300ED4401FD0BEBB40CE9AF05AE04AC
:0100200022BD
:10180900C2B7121770C2A10000000000120003D273
:01181900B717
:01181A0022AB
:1017A100D2A0D2A17F32121835C2A07F32121835D1
:0717B100C2A17F32021835CE
:1017B800C2A0C2A17F32121835D2A17F32121835C9
:0717C800D2A07F32021835A8
:05159400900087EFF05C
:10159900C2A17F0A121835E4900088F0900087E014
:1015A90030E704D2A08002C2A07F05121835D2A16B
:1015B9007F05121835C2A17F05121835900087E002
:1015C90025E0F0A3E004F0E0C3940840CF7F0112C6
:1015D9001835D2A07F28121835D2A17F28121835C4
:1015E9007F2830A008121835C2A17F0122121835B0
:0415F900C2A17F000C
:0115FD0022CB
:05152500900087EFF0CB
:10152A00E4900089F0C2A17F28121835D2A0E49075
:10153A000088F0D2A17F14121835900089E025E0C6
:10154A00F030A006E04401F08007900089E054FEE4
:10155A00F07F0A121835C2A17F3C12183590008814
:10156A00E004F0E0C3940840CA900087E024FF92A8
:10157A00A07F1E121835D2A17F32121835C2A17F60
:09158A0096121835900089E0FF6B
:011593002235
:07182E007D037F200217106B
:10171000900083EFF0A3EDF01217A17FB0121594A3
:10172000900083E0FF121594900084E0FF1215945E
:081730001217B87F640217E3F1
:100CC3001217A17FB1121594E4FF121525E4FCFD60
:100CD300FE90008312061D900083E0FCA3E0FDA3B9
:100CE300E0FEA3E0FF78081205F090008312061DD2
:100CF300900083E0F8A3E0F9A3E0FAA3E0FBC000CF
:100D0300C001C002C003E4FF121525E4FCFDFED0C0
:100D130003D002D001D000EB2FFFEE3AFEED39FDF8
:100D2300EC38FC90008312061DE4FF121525900099
:100D330083E0FCA3E0FDA3E0FEA3E0FF7808120537
:100D4300F090008312061D900083E0F8A3E0F9A35E
:100D5300E0FAA3E0FBC000C001C002C003E4FF123D
:100D63001525E4FCFDFED003D002D001D000EB2F0B
:100D7300FFEE3AFEED39FDEC38FC90008312061DC0
:100D8300900083E0FCA3E0FDA3E0FEA3E0FF78086E
:100D93001205F090008312061D900083E0F8A3E093
:100DA300F9A3E0FAA3E0FBC000C001C002C0037FC7
:100DB30001121525E4FCFDFED003D002D001D000C2
:100DC300EB2FFFEE3AFEED39FDEC38FC9000831279
:100DD300061D1217B8900083E0FCA3E0FDA3E0FE1C
:030DE300A3E0FF8B
:010DE60022EA
:10175400AE071FEE601500751004751181751277C0
:0B176400D512FDD511FAD510F780E575
:01176F002257
:1017E3008F10E510D39400400A751172D511FD15C1
:0317F3001080EF74
:0117F60022D0
:03183500DFFE22B1
:10133F0041542B4D5154545055423D302C222F7354
:10134F0079732F6B3074326D504243344D482F6494
:10135F0065766963655F312F7468696E672F65768F
:10136F00656E742F70726F70657274792F706F73F2
:10137F0074222C227B5C22706172616D735C223A45
:10138F007B5C2274656D70657261747572655C2229
:10139F003A252E31665C2C5C2248756D6964697440
:1013AF00795C223A252E31665C2C5C22636F325CAD
:1013BF00223A25645C2C5C2274766F635C223A259A
:1013CF00645C2C5C224C696768744C75785C223ABB
:1013DF0025645C2C5C22736F696C5C223A25647DFA
:0913EF007D222C312C300D0A0086
:10162E004100B9204100CC504100CB644100CFD0E5
:10163E004100CAD04100C91E4100B7004100B600AA
:10164E004100B5004100C2014100C3004100B80095
:04165E004100C8007F
:1013F800EF70030214989000B9E0FFD39000B4E0B6
:101408009F9000B3E0940050309000CBE0FF900034
:10141800C1E09F9000C0E09400501E9000CCE0FC1A
:10142800E41202419000C4E0F8A3E0F9A3E0FAA3B3
:10143800E0FB1201BE600C400AD2909000B7740124
:10144800F08007C290E49000B7F09000CFE0FFD39F
:101458009000CEE09F9000CDE09400400AD2919099
:1014680000B67401F08007C291E49000B6F09000D5
:10147800CAE0FFD39000BFE09F9000BEE094004018
:1014880008E49000B5F0D29222D292E49000B5F030
:011498002231
:1016630012178AC290C291D29212182E7D087F203F
:10167300121710120CC38F188E178D168C15E4FFDA
:10168300FEE51578101205DD9000B3EEF0A3EFF040
:10169300E518FFE517FE9000C0EEF0A3EFF07F0220
:1016A3001217549000B3E0B4010FA3E0B4900A9072
:0C16B30000C0E07002A3E060B30211ACC4
:100DE7007F02121754121663E49000C3F07F0812B3
:100DF70017549000867401F0A37400F0A374C4F034
:100E07007B017A0079BA120FF87F081217547F9482
:100E1700121809EE540F9000CDF0A3EFF07F0812DF
:100E270017547FE4121809EE540F9000BEF0A3EF99
:100E3700F07F061217547D087F20121710120CC37B
:100E47008F188E178D168C15E4FFFEE51578101296
:100E570005DD9000B3EEF0A3EFF0E518FFE517FE10
:100E67009000C0EEF0A3EFF0A3E0FF1213F87BFFB2
:100E77007A13793F9000BAE0FCA3E0FDA3E0FEA35C
:100E8700E0FF90008612061D9000C4E0FCA3E0FD81
:100E9700A3E0FEA3E0FF90008A12061D9000B3E0D6
:100EA700FFA3E090008ECFF0A3EFF09000C0E0FF2B
:100EB700A3E0900090CFF0A3EFF09000CDE0FFA368
:100EC700E0900092CFF0A3EFF09000BEE0FFA3E028
:100ED700900094CFF0A3EFF01207087F0612175483
:090EE7009000C3E004F0020DF4D8
:100026000202AAE86480F8E933E83360110460F05C
:10003600ED33EC337009E8FCE9FDEAFEEBFF220440
:1000460060DED3EB9FEA9EE99DE8C2E78CF0C2F73B
:1000560095F0400CE8CCF8E9CDF9EACEFAEBCFFB07
:1000660012027585D0F05804700320D5B3E80470E9
:10007600075002B2D50202B492D5EC0460F7E4CC84
:10008600C0E0C398F8603B94186008400DD0E0FBD0
:1000960002028CE4FBFAC9FC8028E830E406E4C9D5
:1000A600FBE4CAFCE830E305E4C9CACBFCE8540724
:1000B6006010F8C3E913F9EA13FAEB13FBEC13FC2F
:1000C600D8F130F52FC3E49CFCEF9BFFEE9AFEEDD2
:1000D60099FDD0E0FBEF4E4D4C701222DB0302027D
:1000E600B1EC2CFCEF33FFEE33FEED33FDED30E7E4
:1000F600EB02028CEF2BFFEE3AFEED39FDD0E0FB72
:1001060050130BBB00030202B4ED13FDEE13FEEF1A
:0801160013FFEC13FC02028C44
:10011E000202B4EC5D046005E8590470030202AA01
:10012E00120275580460F6EC4860F2EC7004FDFEA5
:10013E00FF22C860DB2481C85009C39860025006B4
:10014E000202B19850CAF582E9294B4A7005AB827A
:10015E000202A075F0007C1A7880C3EF9BEE9AED38
:10016E0099400DC3EF9BFFEE9AFEED99FDE842F02C
:10017E00DC23ACF0D0E0FFD0E0FED0E0FDAB82207F
:10018E00E7101BEB60BAEC2CFCEF33FFEE33FEED09
:10019E0033FD02028CE803F830E705C0F075F0007D
:1001AE00EF2FFFEE33FEED33FD40B830E7C280AAED
:1001BE0074F8CC6480CCC86480C8F58204604FC3E8
:1001CE00EB9FF5F0EA9E42F0E99D42F0E89C45F087
:1001DE00603C501DE5825FFFE582D313CB5BCBF411
:1001EE002B5582FB50280ABA002409B9002008803A
:1001FE001DE5825BFBE582D313CF5FCFF4C3132FD4
:10020E005582FF50090EBE00050DBD00010CC3EB5B
:10021E009FF5F0EA9E42F0E99D42F0E89C45F060C1
:09022E0007CC4820E701B3EC22E3
:1002370075F020800E75F010800575F0087D007E42
:10024700007F003392D530D5031205CFEC33401031
:10025700EF33FFEE33FEED33FDEC33FCD5F0ED224B
:0E026700E5F0247EA2D513CC92E7CDCEFF2287
:10069D00E5102486F582E43400F583E00510229000
:1006AD000083300703900086E475F00112062902DD
:1006BD0005772000E97F2ED2008018EF540F24908B
:1006CD00D43440D4FF30040BEF24BFB41A005003D0
:1006DD002461FFE511600215110514E51470020582
:1006ED001330070E900083E475F001120629EF0216
:1006FD0005BD0218267403D2078003E4C207F51066
:10070D00900083120640E4F511F513F514E5116020
:10071D00077F201206E080F57512FFC201C200C2EC
:10072D0002C203C205C206C2081206ACFF700D302C
:10073D0007057F001206F1AF14AE1322B4255FC278
:10074D00D5C2041206ACFF24D0B40A00501A75F0BD
:10075D000A781130D50508B6FF0106C6A426F62085
:10076D00D5047002D20380D924CFB41A00EF5004FF
:10077D00C2E5D2040209E3D20180C6D20080C0D204
:10078D000280BCD2D580BAD20580B47F201206E09B
:10079D002002077401B5110040F112069DFF1206EB
:1007AD00E002071AD208D206809512069DFB1206AA
:1007BD009DFA12069DF94A4B700679E17A0A7BFF84
:1007CD0020022EE511602A7E008E827583001205AF
:1007DD009060060EEE651270F0C2D5EBC0E0EAC077
:1007ED00E0E9C0E0EE120A44D0E0F9D0E0FAD0E042
:1007FD00FB120577FF60AAEBC0E0EAC0E0E9C0E0BC
:10080D001206E0D0E02401F9D0E03400FAD0E0FB8C
:10081D00E5120460DCD512D98087D20280A2120ABB
:10082D002660F7E5127001041202BFA912600DE5F2
:10083D0012600914F512120ACEEF60F3EA30E702E6
:10084D00F404C3995079EAF425120430E701E40465
:10085D00F512800D120A2660C1EA05122512120248
:10086D00BFEA9000B2F030E701E4251204D512047E
:10087D0020050114120A44E4C0E0120ACE9000B221
:10088D00E0601320E70714F01206C8802204F0D0B0
:10089D00E014C0E07F001206C8E51260071206BF23
:1008AD001512800B3005031206BFD0E002071AD0D7
:1008BD00E00480C4120A26609EE512041202BF9065
:1008CD0000B2EAF0E5122005026001042404120AC8
:0108DD0044D6
:1008DE0074FF04C0E0120ACE1206C8E5122005020B
:1008EE0060031206BFD0E0B512E87F451206D29023
:1008FE0000B2E07F2B30E7047F2DF404C0E0120637
:10090E00E0D0E075F00A84C0F01206C9D0E01206FD
:10091E00C902071A791080027908C206C208800837
:10092E00D2D5790A8004790AC2D5E512047002F58F
:10093E0012E4FAFDFEFF12069DFC7B082001131245
:10094E00069DFD7B1030000A12069DFE12069DFFCD
:10095E007B20EC3382D592D55013C3E43000069F32
:10096E00FFE49EFEE42001039DFDE49CFCE4CBF835
:10097E00C201EC700CCFCECDCCE824F8F870F38029
:10098E0017C3EF33FFEE33FEED33FDEC33FCEB33E9
:10099E00FB994002FB0FD8E9EB300105F8D0E0C41B
:1009AE0048B201C0E00AEC4D4E4F78207B0070C279
:1009BE00EAB5120040BCC0E0120A46D0F0D0E020EA
:1009CE000104C4C0E0C4B201C0F01206C9D0F0D513
:1009DE00F0EB02071A12064907B753092258078887
:1009EE004C07844209264F092E44092E49079D4380
:1009FE0009345508614608C145082B470B015007BD
:100A0E008C2D07902E07B32B07942307B1200AEAEB
:100A1E002A074C48000007ABE512B4FF0375120617
:100A2E0012069DFC12069DFD12069DFE12069DFFEE
:100A3E009000AB0202FC790AA2D5200314300509FE
:100A4E00B910020404B9080104A2D520060250010F
:100A5E00042002689202B511005034C0E07F2030AD
:100A6E0003197F30A20272067205500F120A9DC240
:100A7E0002C206C205C2087F30800F300503E9C0EE
:100A8E00E01206E0300503D0E0F9D0E0B511CC302D
:100A9E0005177F30B9100C1206E07F583004077F1F
:100AAE00788003B908031206E03002057F2D020696
:100ABE00E07F202008F87F2B2006F322920280CFC1
:100ACE007F00B40700500B24ABF582E43400F583AD
:100ADE00E0FF22286E756C6C2900D20112069D3043
:100AEE0001F8C201781130D50108F602074C2D50DD
:100AFE0043495812069D2403B405004001E4900AB0
:100B0E00FC931206D1743A1206D1D2037511040267
:020B1E000922AA
:10027500E9D2E7C933E833F892D5EDD2E7CD33ECCF
:0702850033FC5002B2D52248
:10028C00EC30E7100FBF000C0EBE00080DBD0004D3
:10029C000BEB6014A2D5EB13FCED92E7FD2274FF7F
:1002AC00FCFDFEFF22E480F8A2D574FF13FC7D80D8
:0302BC00E480EFEC
:1002BF00F920E73624F950037907E4F42402FBE52B
:1002CF0082158270021583DBF6E024FB501BE96078
:1002DF0014E4F0E582158270021583E004F0B40A8D
:0D02EF0008E4F0D9EE7401F00A22C2D52215
:1002FC00ED33EC3392D5FA602AB4FF33EDC2E77BD1
:10030C00FF60067A037921E4227A03792A20D50446
:10031C007A037925224E614E002B494E46002D4919
:10032C004E4600E47A08F0A3DAFC7B00740722C086
:10033C0083C082ECC0E0EDC0E0EEC0E0EFC0E0EACC
:10034C0075F010A4CAABF075F04DA42BFBE435F09E
:10035C00FCEA2410FAEB34C5FBEC34D9FCEDC2E713
:10036C00FF75F056A4F42411C5F0F434C58FF0A435
:10037C002AE5F03BE43CF020E714120537D0E0FF0F
:10038C00D0E0FED0E0FDD0E0FC1201218014F4049A
:10039C00120537D0E0FFD0E0FED0E0FDD0E0FC123B
:1003AC000401D082D083E0FAEDD2E7CD33EC3324D4
:1003BC0082FBE4C3CF33CFCE33CECD33CD33DBF39F
:1003CC007B0775F00A846004F0A31B0AE5F0F0A328
:1003DC008FF0740AA4FFACF08EF0740AA42CFEAC5F
:1003EC00F050010C8DF0740AA42CFDE435F0F0A350
:0503FC00DBDE740722A6
:10040100EC4D6011E8497017ED33EC3304600DE4F5
:10041100FCFFFEFD22E933E8330470F80202AA1260
:10042100027558046009E4CC248150062850090261
:1004310002B42840030202B1C0E0EB4A7044B98023
:1004410006D0E0FB0202A0EF4E701CBD8008EBFF5E
:10045100EAFEE9FD80EBE98DF0A4FEE5F00204EA95
:10046100E9CDF9EAFEEBFFEF89F0A4FCE5F0CE89D6
:10047100F0A42EFFE435F0CD89F0A42DFEE435F093
:100481008067EF4E7005BD80D780C3EF8BF0A4ACC1
:10049100F0EE8BF0A42CFCE435F0F8EF8AF0A42CFC
:1004A100E5F038FCE433CB8DF0A42CFCE5F03BF80F
:1004B100EE8AF0A42CFCE5F038F8E433CF89F0A4FF
:1004C1002CFCE5F038CF3400CE89F0A42FFFE5F005
:1004D1003EFEE433C98DF0A42EFEE5F039CD8AF05D
:1004E100A42FFFE5F03EFEE43DFD33D0E0FB5007D5
:1004F1000BBB000F0202B4EC2CFCEF33FFEE33FE1A
:06050100ED33FD02028C47
:100507003F8000004120000042C80000447A0000FC
:10051700461C400047C35000497424004B1896807E
:100527004CBEBC205A0E1BCA6753C21C749DC5AE75
:10053700FB60065407601C2323120565EB543860E3
:1005470009120551120560120401ECF8EDF9EEFAF3
:10055700EFCB22EB12056080F1543803241C900581
:1005670007FE93FC0EEE93FD0EEE930ECE93FF2245
:1014A500020DE7E493A3F8E493A34003F68001F269
:1014B50008DFF48029E493A3F85407240CC8C33348
:1014C500C4540F4420C8834004F456800146F6DF17
:1014D500E4800B01020408102040809015FEE47E94
:1014E500019360BCA3FF543F30E509541FFEE4930C
:1014F500A360010ECF54C025E060A840B8E493A3D3
:10150500FAE493A3F8E493A3C8C582C8CAC583CAFD
:10151500F0A3C8C582C8CAC583CADFE9DEE780BEB5
:011662000087
:10057700BB010689828A83E0225002E722BBFE0282
:09058700E32289828A83E49322B5
:10059000BB010CE58229F582E5833AF583E0225020
:1005A00006E92582F8E622BBFE06E92582F8E2226A
:0D05B000E58229F582E5833AF583E4932284
:1005BD00BB010689828A83F0225002F722BBFE011D
:0205CD00F32217
:0E05CF00C3E49FFFE49EFEE49DFDE49CFC223D
:1005DD00E8600FECC313FCED13FDEE13FEEF13FFFC
:0305ED00D8F12220
:1005F000E8600FEFC333FFEE33FEED33FDEC33FC69
:03060000D8F1220C
:10060300BB010789828A8302061D5005E9F80206A9
:0A06130085BBFE05E9F802069122FE
:0C061D00ECF0A3EDF0A3EEF0A3EFF02250
:10062900F8E0FBA3A3E0F925F0F0E582158270025A
:070639001583E0FA38F022FE
:09064000EBF0A3EAF0A3E9F022BB
:10064900D083D082F8E4937012740193700DA3A340
:1006590093F8740193F5828883E473740293686054
:06066900EFA3A3A380DF54
:1012800090008CEBF0A3EAF0A3E9F0A3E0FBA3E06D
:10129000FAA3E0F9120577700302132C90008CE09A
:1012A000FBA3E0FAA3E0F91205777003021338906C
:1012B000008FE0F9A3E0FAA3E0A3C9F0A3EAF0A34A
:1012C000E9F090008CA3E0FAA3E0F9900095EBF030
:1012D000A3EAF0A3E9F0900092E0FBA3E0FAA3E018
:1012E000F9120577FF6026900095E0FBA3E0FAA3D2
:1012F000E0F91205776F701590009375F0011206F2
:101300006F900096E475F00112066F80C99000920C
:10131000E0FBA3E0FAA3E0F91205777002800D90DC
:10132000008DE475F00112066F02129C90008CE0B3
:0F133000FBA3E0FAA3E0F9227B007A0079002208
:10066F00C5F0F8A3E028F0C5F0F8E5821582700216
:06067F001583E038F022B3
:0C068500ECF608EDF608EEF608EFF622A1
:0C069100ECF208EDF208EEF208EFF222A5
:00000001FF
